:020000040800F2
:1000000000000220FD4F0008AD130008AF130008E8
:10001000B1130008B3130008B51300080000000076
:10002000000000000000000000000000B7130008FE
:10003000B913000800000000BB130008BD1300083E
:100040004D5000084D5000084D5000084D5000081C
:100050004D5000084D5000084D5000084D5000080C
:100060004D5000084D5000084D5000084D500008FC
:100070004D5000084D5000084D5000084D500008EC
:100080004D5000084D5000084D5000084D500008DC
:100090004D5000084D5000084D5000084D500008CC
:1000A0004D5000084D5000084D5000084D500008BC
:1000B0004D5000084D5000084D5000084D500008AC
:1000C0004D5000084D5000084D5000084D5000089C
:1000D0004D5000084D5000084D5000084D5000088C
:1000E0004D5000084D5000084D5000084D5000087C
:1000F0004D5000084D5000084D5000084D5000086C
:100100004D5000084D5000084D5000084D5000085B
:100110004D5000084D5000084D5000084D5000084B
:10012000E51400084D5000084D5000084D500008DF
:100130004D50000800000000000000004D50000875
:100140004D5000084D5000084D5000084D5000081B
:100150004D5000084D5000084D5000084D5000080B
:100160004D5000084D5000084D5000084D500008FB
:100170004D5000084D500008000000000000000035
:080180004D5000084D5000082D
:1001900010B5054C237833B9044B13B10448AFF3C1
:1001A00000800123237010BDDC010020000000004E
:1001B0006C78000808B5034B1BB103490348AFF343
:1001C000008008BD00000000E00100206C780008FD
:1001D000034613F8012B002AFBD1181A0138704787
:1001E00001F0FF01102A2BDB10F0070F08D010F8E8
:1001F000013B013A8B422DD010F0070F42B3F6D1EC
:10020000F0B441EA012141EA014122F007047FF004
:1002100000070023F0E80256083C85EA010586EA5B
:10022000010685FA47F5A3FA87F586FA47F6A5FA97
:1002300087F68EB9EED1F0BC01F0FF0102F00702A3
:1002400032B110F8013B013A83EA010313B1F8D14E
:100250000020704701387047002D06BF354603382F
:10026000073815F0010F07D1013015F4807F02BF68
:10027000013015F4C03F0130F0BC0138704700BFB9
:1002800081F0004102E000BF83F0004330B54FEA47
:1002900041044FEA430594EA050F08BF90EA020FB4
:1002A0001FBF54EA000C55EA020C7FEA645C7FEA47
:1002B000655C00F0E2804FEA5454D4EB5555B8BF6A
:1002C0006D420CDD2C4480EA020281EA030382EADB
:1002D000000083EA010180EA020281EA0303362D6D
:1002E00088BF30BD11F0004F4FEA01314FF4801C40
:1002F0004CEA113102D0404261EB410113F0004F52
:100300004FEA03334CEA133302D0524263EB430308
:1003100094EA050F00F0A780A4F10104D5F1200EA6
:100320000DDB02FA0EFC22FA05F2801841F1000101
:1003300003FA0EF2801843FA05F359410EE0A5F1D5
:1003400020050EF1200E012A03FA0EFC28BF4CF006
:10035000020C43FA05F3C01851EBE37101F00045BC
:1003600007D54FF0000EDCF1000C7EEB00006EEBC9
:100370000101B1F5801F1BD3B1F5001F0CD3490853
:100380005FEA30004FEA3C0C04F101044FEA4452AA
:1003900012F5800F80F09A80BCF1004F08BF5FEA31
:1003A000500C50F1000041EB045141EA050130BD11
:1003B0005FEA4C0C404141EB010111F4801FA4F1B4
:1003C0000104E9D191F0000F04BF01460020B1FA09
:1003D00081F308BF2033A3F10B03B3F120020CDA41
:1003E0000C3208DD02F1140CC2F10C0201FA0CF01F
:1003F00021FA02F10CE002F11402D8BFC2F1200C84
:1004000001FA02F120FA0CFCDCBF41EA0C01904039
:10041000E41AA2BF01EB0451294330BD6FEA040482
:100420001F3C1CDA0C340EDC04F11404C4F120026D
:1004300020FA04F001FA02F340EA030021FA04F37F
:1004400045EA030130BDC4F10C04C4F1200220FAD6
:1004500002F001FA04F340EA0300294630BD21FA14
:1004600004F0294630BD94F0000F83F4801306BFDA
:1004700081F480110134013D4EE77FEA645C18BFCE
:100480007FEA655C29D094EA050F08BF90EA020F65
:1004900005D054EA000C04BF1946104630BD91EA5D
:1004A000030F1EBF0021002030BD5FEA545C05D160
:1004B0004000494128BF41F0004130BD14F580049F
:1004C0003CBF01F5801130BD01F0004545F0FE4113
:1004D00041F470014FF0000030BD7FEA645C1ABF48
:1004E000194610467FEA655C1CBF0B46024650EA7F
:1004F000013406BF52EA033591EA030F41F40021AB
:1005000030BD00BF90F0000F04BF0021704730B530
:100510004FF4806404F132044FF000054FF0000105
:1005200050E700BF90F0000F04BF0021704730B5C6
:100530004FF4806404F1320410F0004548BF40429B
:100540004FF000013EE700BF42004FEAE2014FEAF0
:1005500031014FEA02701FBF12F07F4393F07F4FCB
:1005600081F06051704732F07F4208BF704793F0CE
:100570007F4F04BF41F40021704730B54FF46074E1
:1005800001F0004521F000411CE700BF50EA0102E4
:1005900008BF704730B54FF000050AE050EA01028D
:1005A00008BF704730B511F0004502D5404261EBFD
:1005B00041014FF4806404F132045FEA915C3FF43E
:1005C000D8AE4FF003025FEADC0C18BF03325FEADB
:1005D000DC0C18BF033202EBDC02C2F1200300FA8C
:1005E00003FC20FA02F001FA03FE40EA0E0021FAB1
:1005F00002F11444BDE600BF70B54FF0FF0C4CF49F
:10060000E06C1CEA11541DBF1CEA135594EA0C0F50
:1006100095EA0C0F00F0DEF82C4481EA030621EA8B
:100620004C5123EA4C5350EA013518BF52EA0335C6
:1006300041F4801143F4801338D0A0FB02CE4FF078
:100640000005E1FB02E506F00042E0FB03E54FF0A8
:100650000006E1FB03569CF0000F18BF4EF0010EA0
:10066000A4F1FF04B6F5007F64F5407404D25FEA9C
:100670004E0E6D4146EB060642EAC62141EA55514F
:100680004FEAC52040EA5E504FEACE2EB4F1FD0C91
:1006900088BFBCF5E06F1ED8BEF1004F08BF5FEA0F
:1006A000500E50F1000041EB045170BD06F00046C1
:1006B00046EA010140EA020081EA0301B4EB5C046E
:1006C000C2BFD4EB0C0541EA045170BD41F4801166
:1006D0004FF0000E013C00F3AB8014F1360FDEBF8B
:1006E000002001F0004170BDC4F10004203C35DA67
:1006F0000C341BDC04F11404C4F1200500FA05F3EA
:1007000020FA04F001FA05F240EA020001F000428A
:1007100021F0004110EBD37021FA04F642EB060100
:100720005EEA430E08BF20EAD37070BDC4F10C042A
:10073000C4F1200500FA04F320FA05F001FA04F2EE
:1007400040EA020001F0004110EBD37041F10001DA
:100750005EEA430E08BF20EAD37070BDC4F12005E5
:1007600000FA05F24EEA020E20FA04F301FA05F24D
:1007700043EA020321FA04F001F0004121FA04F2F5
:1007800020EA020000EBD3705EEA430E08BF20EAC5
:10079000D37070BD94F0000F0FD101F000464000FF
:1007A00041EB010111F4801F08BF013CF7D041EA81
:1007B000060195F0000F18BF704703F00046520085
:1007C00043EB030313F4801F08BF013DF7D043EA56
:1007D0000603704794EA0C0F0CEA135518BF95EA0C
:1007E0000C0F0CD050EA410618BF52EA4306D1D193
:1007F00081EA030101F000414FF0000070BD50EAB2
:10080000410606BF1046194652EA430619D094EA3B
:100810000C0F02D150EA013613D195EA0C0F05D125
:1008200052EA03361CBF104619460AD181EA030179
:1008300001F0004141F0FE4141F470014FF0000031
:1008400070BD41F0FE4141F4780170BD70B54FF0CC
:10085000FF0C4CF4E06C1CEA11541DBF1CEA13554C
:1008600094EA0C0F95EA0C0F00F0A7F8A4EB05042E
:1008700081EA030E52EA03354FEA013100F0888025
:100880004FEA03334FF0805545EA131343EA1263EE
:100890004FEA022245EA111545EA10654FEA0026A3
:1008A0000EF000419D4208BF964244F1FD0404F55C
:1008B000407402D25B084FEA3202B61A65EB0305B8
:1008C0005B084FEA32024FF480104FF4002CB6EB75
:1008D000020E75EB030E22BFB61A754640EA0C00F5
:1008E0005B084FEA3202B6EB020E75EB030E22BF35
:1008F000B61A754640EA5C005B084FEA3202B6EB76
:10090000020E75EB030E22BFB61A754640EA9C0034
:100910005B084FEA3202B6EB020E75EB030E22BF04
:10092000B61A754640EADC0055EA060E18D04FEAC2
:10093000051545EA16754FEA06164FEAC30343EA62
:1009400052734FEAC2025FEA1C1CC0D111F4801F2F
:100950000BD141EA00014FF000004FF0004CB6E728
:1009600011F4801F04BF01430020B4F1FD0C88BFC7
:10097000BCF5E06F3FF6AFAEB5EB030C04BFB6EBD2
:10098000020C5FEA500C50F1000041EB045170BDC5
:100990000EF0004E4EEA113114EB5C04C2BFD4EBF2
:1009A0000C0541EA045170BD41F480114FF0000E76
:1009B000013C90E645EA060E8DE60CEA135594EAF2
:1009C0000C0F08BF95EA0C0F3FF43BAF94EA0C0FF5
:1009D0000AD150EA01347FF434AF95EA0C0F7FF46A
:1009E00025AF104619462CE795EA0C0F06D152EABE
:1009F00003353FF4FDAE1046194622E750EA4106A2
:100A000018BF52EA43067FF4C5AE50EA41047FF4B2
:100A10000DAF52EA43057FF4EBAE12E74FF0FF3C17
:100A200006E000BF4FF0010C02E000BF4FF0010CE8
:100A30004DF804CD4FEA410C7FEA6C5C4FEA430C61
:100A400018BF7FEA6C5C1BD001B050EA410C0CBFB0
:100A500052EA430C91EA030F02BF90EA020F002012
:100A6000704710F1000F91EA030F58BF994208BF79
:100A700090422CBFD8176FEAE37040F00100704736
:100A80004FEA410C7FEA6C5C02D150EA013C07D18D
:100A90004FEA430C7FEA6C5CD6D152EA033CD3D0D8
:100AA0005DF8040B704700BF8446104662468C46D2
:100AB0001946634600E000BF01B5FFF7B7FF002805
:100AC00048BF10F1000F01BD4DF808EDFFF7F4FF2E
:100AD0000CBF012000205DF808FB00BF4DF808EDB9
:100AE000FFF7EAFF34BF012000205DF808FB00BFDC
:100AF0004DF808EDFFF7E0FF94BF012000205DF8FE
:100B000008FB00BF4DF808EDFFF7CEFF94BF0120B2
:100B100000205DF808FB00BF4DF808EDFFF7C4FFAB
:100B200034BF012000205DF808FB00BF4FEA410CF4
:100B30007FEA6C5C02D150EA013C0AD14FEA430CD7
:100B40007FEA6C5C02D152EA033C02D14FF0000014
:100B500070474FF0010070474FEA410212F5001252
:100B600015D211D56FF47873B3EB625212D94FEAF4
:100B7000C12343F0004343EA505311F0004F23FADE
:100B800002F018BF404270474FF00000704750EA33
:100B9000013005D111F0004008BF6FF000407047F0
:100BA0004FF00000704700BF53B94AB9002908BF91
:100BB00000281CBF4FF0FF314FF0FF3000F072B93A
:100BC000ADF1080C6DE904CE00F006F8DDF804E0A4
:100BD000DDE9022304B070472DE9F047089E044682
:100BE0008846002B4BD18A42154667D9B2FA82F269
:100BF0004AB1C2F1200701FA02F320FA07F7954043
:100C000047EA030894404FEA154E230CB8FBFEF761
:100C10001FFA85FC0EFB178843EA084307FB0CF11B
:100C2000994209D9EB1807F1FF3080F01B819942F6
:100C300040F21881023F2B445B1AA4B2B3FBFEF0D2
:100C40000EFB103344EA034400FB0CFCA44509D915
:100C50002C1900F1FF3380F00781A44540F2048194
:100C600002382C4440EA0740A4EB0C0400271EB1D4
:100C7000D4400023C6E900433946BDE8F0878B42E3
:100C800009D9002E00F0EB800027C6E900013846A4
:100C90003946BDE8F087B3FA83F7002F47D18B427E
:100CA00002D3824200F2FA80841A61EB030301202E
:100CB0009846002EE0D0C6E90048DDE702B9FFDE25
:100CC000B2FA82F2002A40F08F80491B4FEA154E9B
:100CD0001FFA85F80127B1FBFEFC230C0EFB1C114B
:100CE00043EA014308FB0CF1994207D9EB180CF1D8
:100CF000FF3002D2994200F2CD808446591AA3B245
:100D0000B1FBFEF00EFB101443EA044408FB00F8AC
:100D1000A04507D92C1900F1FF3302D2A04500F2FB
:100D2000B6801846A4EB080440EA0C409FE7C7F1E0
:100D3000200CBB4022FA0CFE4EEA030E01FA07F427
:100D400020FA0CF521FA0CF34FEA1E482543B3FBB9
:100D5000F8F92C0C08FB19331FFA8EFA44EA034306
:100D600009FB0AF49C4202FA07F200FA07F10BD9D8
:100D70001EEB030309F1FF3080F087809C4240F2B4
:100D80008480A9F1020973441B1BADB2B3FBF8F0D8
:100D900008FB103345EA034400FB0AFAA24508D9D0
:100DA0001EEB040400F1FF336BD2A24569D902386F
:100DB000744440EA0940A0FB0289A4EB0A044C45B4
:100DC000C2464B4654D351D0002E69D0B1EB0A0530
:100DD00064EB030404FA0CFCFD40FC404CEA0505FE
:100DE000C6E90054002747E7C2F1200320FA03F7C1
:100DF000954001FA02F021FA03F34FEA154E384309
:100E0000010CB3FBFEF71FFA85F80EFB173341EA1E
:100E1000034107FB08F38B4204FA02F407D969186F
:100E200007F1FF3C2FD28B422DD9023F2944CB1A28
:100E300081B2B3FBFEF00EFB103341EA034100FB2D
:100E400008F38B4207D9691800F1FF3C17D28B4297
:100E500015D902382944C91A40EA07473BE7374603
:100E6000304609E70746E7E61846FBE64145ABD2C0
:100E7000B8EB020A69EB0E0201381346A4E760469C
:100E8000E9E7184695E76746D1E781467CE70238EF
:100E90002C4447E7ACF1020C2B442FE7384608E717
:100EA0003746E9E6704700BF10B504460E4B187888
:100EB0004FF47A73B3FBF0F30C4A1068B0FBF3F015
:100EC00002F0E0F868B90F2C01D901200AE00022F5
:100ED00021464FF0FF3002F095F8054B1C600020D2
:100EE00000E0012010BD00BF00000020080000202D
:100EF0000400002008B50B4B1A6842F400721A6017
:100F00001A6842F480621A601A6842F480721A60A9
:100F1000032002F065F80F20FFF7C6FF02F07CFB0C
:100F2000002008BD003C0240034A1168034B1B78B7
:100F30000B441360704700BF140200200000002023
:100F4000014B1868704700BF1402002038B50446F2
:100F5000FFF7F6FF0546B4F1FF3F02D0044B1B78C4
:100F60001C44FFF7EDFF401BA042FAD338BD00BF81
:100F7000000000200F49D1F8883043F47003C1F815
:100F800088300D4B1A6842F001021A600020986008
:100F90001A6822F0847222F480321A60074A5A607A
:100FA0001A6822F480221A60D8604FF000638B60C8
:100FB000704700BF00ED00E0003802401030002410
:100FC00000230F2B00F2D780F0B482B039E0072263
:100FD00000E00022B2403A430234674E46F8242033
:100FE000664A1468EA4302EA04064F6817F4803F31
:100FF00001D045EA0406614C2660646802EA0406F2
:101000004F6817F4003F01D045EA04065B4C666068
:10101000A46802EA04064F6817F4801F01D045EA6D
:101020000406564CA660E46822404E6816F4001F81
:1010300001D045EA0402514CE26001330F2B00F26B
:10104000978001229A400C6804EA0205AA42F4D172
:101050004C68022C01D0122C10D1DE08083650F852
:1010600026C003F00704A7000F24BC402CEA040CA0
:101070000C69BC4044EA0C0440F8264004685F0058
:101080000326BE40F64306EA040C4C6804F0030451
:10109000BC4044EA0C0404604C6804F1FF3CBCF121
:1010A000010F03D9112C01D0122C10D1846806EA4B
:1010B000040CCC68BC4044EA0C048460446824EA14
:1010C00002024C68C4F300149C4014434460C2689C
:1010D00016408A68BA403243C2604A6812F0805FA4
:1010E000ABD000220192264A546C44F480445464EC
:1010F000526C02F480420192019A9C08A61C1E4A7E
:1011000052F8267003F0030296000F22B24027EA3D
:1011100002071C4A90423FF45CAF02F580629042A5
:101120001AD002F58062904218D002F58062904297
:1011300016D002F58062904214D002F5806290428F
:1011400012D002F58062904210D002F58062904287
:101150003FF43DAF08223DE701223BE7022239E799
:10116000032237E7042235E7052233E7062231E779
:1011700002B0F0BC7047704700380140003C0140AD
:1011800000380240000002400369194201D10020EA
:1011900070470120704712B909048161704781616D
:1011A0007047000000B585B02D482E4B03604FF40A
:1011B000803343604FF08073836001230361836158
:1011C00000220262C26228498162C2600422C261B6
:1011D0000363436102F01AF840BB0023009301232C
:1011E00001930223029369461D4802F04DF910BB9A
:1011F00001230093022301936946194802F044F940
:10120000F0B902230093032301936946144802F0C6
:101210003BF9D0B903230093042301936946104896
:1012200002F032F9B0B905B05DF804FB4F210F4868
:1012300001F024F9D1E759210C4801F01FF9D7E753
:1012400062210A4801F01AF9DBE76B21074801F037
:1012500015F9DFE77421054801F010F9E3E700BF55
:1012600060020020002001400100000FA07800086B
:1012700000B585B01648174B03604FF480334360C8
:1012800000238360036183610362C362124A826246
:10129000C3600122C2610363426101F0B7FF68B914
:1012A0000423009301230193002302936946084815
:1012B00002F0EAF838B905B05DF804FB8D21074863
:1012C00001F0DCF8ECE79721044801F0D7F8F2E7E9
:1012D00018020020002101400100000FA078000842
:1012E00030B589B003682A4A934204D0294A934210
:1012F00037D009B030BD044600250195264B5A6C05
:1013000042F480725A645B6C03F480730193019B16
:101310000F23039303230493059503A91F48FFF7A5
:101320004FFE1F481F4B036045608560C5604FF44A
:10133000806303614FF4006343614FF400538361A2
:10134000C5614FF400330362456202F011FA18B927
:10135000134BA3639C63CCE7C121134801F08EF8C3
:10136000F6E7002102910C4B5A6C42F400725A6469
:101370005B6C03F400730293029B1023039303231B
:101380000493059103A90548FFF71AFEB1E700BFD2
:1013900000200140002101400038024000000240CE
:1013A000A802002010640240A07800087047FEE701
:1013B000FEE7FEE7FEE770477047704710B5FFF79E
:1013C000B3FD01F086FE03F043FD354C207802F0BA
:1013D0001BFF01F087FD6378DBB2012B38D00023BF
:1013E000304A1380304A1380304A13800023304A39
:1013F0001360304A1360304A53629362284B9B78E3
:10140000DBB2012B27D000232C4A13802C4A1380F7
:1014100000232C4A13602C4A9360214B5B7ADBB289
:10142000012B3AD00023294A1380294A1380294BE3
:10143000B3F900108AB25888121A5A815980264B83
:10144000B3F900108AB25888121A5A81598010BD17
:1014500003F022F8D2E703F04BF9204BB3F90C303C
:1014600007EE903A154B1B881D4A03F5FA6102EB13
:101470008101F8EEE77AC1ED007A0F49886903F53A
:101480007A6102EB810108600F49096903F5BB53DA
:10149000103302EB83031960BFE703F099F9C6E745
:1014A0000C050020EC040020100300201C03002089
:1014B0000C0300202403002020050020EE0400205F
:1014C0002C030020200300208805002012030020A8
:1014D000800500206005002010A20020700500207B
:1014E000C005002008B5024802F02CFA08BD00BF74
:1014F000A802002008B5024803F0C8FC08BD00BFE0
:1015000028A2002090F83830012B22D030B40122DC
:1015100080F83820022380F839300468636823F0AB
:1015200070036360046863680D682B43636004683C
:10153000A36823F08003A3600468A36849680B4391
:10154000A36080F83920002380F83830184630BC7A
:1015500070470220704790F83830012B25D00123C6
:1015600080F83830CB6823F440738A68134323F43F
:1015700080634A68134323F400630A68134323F427
:1015800080530A69134323F400534A69134323F435
:1015900080438A69134323F400431343026853646E
:1015A000002380F83830184670470220704700004A
:1015B000F0B58BB0002401942A4B1A6B42F0040260
:1015C0001A631A6B02F004020192019A02941A6BD8
:1015D00042F001021A631A6B02F001020292029AAF
:1015E00003941A6B42F002021A631A6B02F00202B1
:1015F0000392039A04941A6B42F008021A631B6B5D
:1016000003F008030493049B174F224646F2CF11C0
:101610003846FFF7C0FD154D22464FF4805128464D
:10162000FFF7B9FD46F2CF130593012606960794FE
:10163000089405A93846FFF7C3FC4FF4805305937F
:1016400006960794089405A92846FFF7B9FC0423D9
:1016500005930694079405A90548FFF7B1FC0BB064
:10166000F0BD00BF00380240000802400004024004
:10167000000C024010B5074C04212046FFF784FD02
:1016800004212046FFF780FD012801D0012010BD74
:101690000020FCE7000C024010B50C4C01224FF476
:1016A00000512046FFF777FD01224FF4804120468C
:1016B000FFF771FD012280212046FFF76CFD01221A
:1016C0004FF480712046FFF766FD10BD0008024010
:1016D00010B5044618B314F0010F23D000224FF4C4
:1016E00000511E48FFF757FD14F0020F21D00022D1
:1016F0004FF480411948FFF74EFD14F0040F1FD03E
:10170000002280211548FFF746FD14F0080F1DD177
:1017100001224FF480711148FFF73DFD10BDFFF726
:10172000BBFFD8E701224FF400510C48FFF733FD0F
:10173000DAE701224FF480410848FFF72CFDDCE78F
:10174000012280210548FFF726FDDEE700224FF445
:1017500080710248FFF71FFDE0E700BF000802406C
:10176000F8B505460F4616461C463BE02CB1FFF780
:10177000E7FB069BC01AA04234D32A68536823F0C3
:10178000E00353606B68B3F5827F0BD0AB6AB3F5AF
:10179000005F14D0012385F85130002385F85030C4
:1017A000032027E0AB68B3F5004F02D0B3F5806F9C
:1017B000ECD12A68136823F040031360E6E72A6837
:1017C000136823F400531B041B0C13602A6813686E
:1017D00043F400531360DDE70123B34209D0B4F1B1
:1017E000FF3FC3D12B689B6837EA0303F4D0002383
:1017F000F3E70020F8BD10B582B0044600920B4616
:1018000000228021FFF7ACFF034610B9184602B052
:1018100010BD636D43F0200363650323F6E70028E2
:101820003BD010B504460023836290F85130002B62
:101830002ED0022384F851302268136823F040032D
:1018400013606368A2681343E26813432269134379
:1018500062691343A26902F400721343E2691343FD
:10186000226A1343A16A22680B431360638B03F05F
:101870000403616A22680B4353602268D36923F42E
:101880000063D36100206065012384F8513010BDEE
:1018900080F8503002F0A2FBCBE7012070472DE921
:1018A000F04184B01E4690F85030012B00F0C88003
:1018B00004460D469046012380F85030FFF740FB68
:1018C000074694F85130DBB2012B0AD002230122E3
:1018D00084F85120002284F85020184604B0BDE856
:1018E000F081002D00F0A480B8F1000F00F0A2807C
:1018F000032384F85130002363652563A4F8348002
:10190000A4F83680A363A387E38763642364A36892
:10191000B3F5004F1BD023681A6812F0400F03D1B3
:101920001A6842F040021A60E368B3F5006F14D001
:1019300063681BB1E38E9BB2012B3ED1236815F87F
:10194000012B1A73E38E013B9BB2E38635E02268DC
:10195000136843F480431360DDE763681BB1E38ED3
:101960009BB2012B0DD1236835F8022BDA60E38E90
:10197000013B9BB2E38604E0002E5DD0B6F1FF3F51
:101980000FD1E38E9BB27BB323689A6812F0020FEB
:10199000F2D035F8022BDA60E38E013B9BB2E3868E
:1019A000EFE7FFF7CDFAC01BB042EAD303238EE77F
:1019B000002E43D0B6F1FF3F0FD1E38E9BB29BB117
:1019C00023689A6812F0020FF2D015F8012B1A73EF
:1019D000E38E013B9BB2E386EFE7FFF7B1FAC01B52
:1019E000B042EAD3032372E7009733460122022173
:1019F0002046FFF7B5FE08B1032368E73A463146B3
:101A00002046FFF7F8FE034618B120236365012343
:101A10005DE7A26832B903922268D16803919268A7
:101A20000392039A626D002A3FF451AF01234EE7FF
:101A300001234CE701234AE7032348E7032346E752
:101A400002234AE72DE9F04385B099460C9D90F8B2
:101A50005030012B00F0108104460F46164601233A
:101A600080F85030FFF76CFA804694F85130DBB2C2
:101A70006268012B15D0B2F5827F0AD002230122C1
:101A800084F85120002284F85020184605B0BDE8A3
:101A9000F083A268002A40F0E780042B01D00223E3
:101AA000EDE7002F00F0E280002E00F0E180B9F1B8
:101AB000000F00F0DF8094F85130DBB2012B2BD007
:101AC00000236365A663A4F83E90A4F83C902763C6
:101AD000A4F83690A4F834902364636423681A68E9
:101AE00012F0400F03D11A6842F040021A60E36816
:101AF000B3F5006F14D063681BB1E38E9BB2012B6A
:101B000007D1236817F8012B1A73E38E013B9BB2B0
:101B1000E3864FF0010961E0052384F85130CFE7F7
:101B200063681BB1E38E9BB2012B07D1236837F8A2
:101B3000022BDA60E38E013B9BB2E3864FF0010992
:101B400013E0E38F9BB26BB123689A6812F0010F28
:101B500008D0DB6826F8023BE38F013B9BB2E387AA
:101B60004FF00109B5F1FF3F1CD1E38E9BB21BB9C9
:101B7000E38F9BB2002B55D0B9F1000FE1D0E38E7B
:101B80009BB2002BDDD023689A6812F0020FD8D0E8
:101B900037F8022BDA60E38E013B9BB2E3864FF00D
:101BA0000009CEE7FFF7CCF9A0EB0800A842DCD390
:101BB000032364E7E38F9BB26BB123689A6812F04A
:101BC000010F08D0DB683370E38F013B9BB2E387E2
:101BD00001364FF00109B5F1FF3F1BD1E38E9BB2F7
:101BE00013B9E38F9BB2EBB1B9F1000FE2D0E38EF2
:101BF0009BB2002BDED023689A6812F0020FD9D076
:101C00003A781A73E38E013B9BB2E38601374FF0BB
:101C10000009CFE7FFF794F9A0EB0800A842DDD355
:101C200003232CE7CDF800802B4601220221204619
:101C3000FFF796FD08B1032321E7424629462046D7
:101C4000FFF7D9FD034618B120236365012316E78A
:101C5000A268002A7FF413AF03922268D16803912F
:101C600092680392039A0AE7022308E7012306E732
:101C7000012304E7012302E7022306E72DE9F041EF
:101C800082B004460D4617461E464368B3F5827F70
:101C900019D094F85030012B00F0A280012384F871
:101CA0005030FFF74DF9804694F85130DBB2012BEC
:101CB00015D00220012384F85130002384F85030DD
:101CC00002B0BDE8F0818368002BE2D1042380F8E4
:101CD0005130009613460A46FFF7B4FEF0E7002D98
:101CE00074D0002F74D0042384F85130002363652E
:101CF000A563A787E7872363A386E38623646364DA
:101D0000A368B3F5004F0BD023681A6812F0400F98
:101D100003D11A6842F040021A60E3685BB128E020
:101D20002268136823F480431360EDE7002E51D03E
:101D3000B6F1FF3F10D1E38F9BB2002B31D0236867
:101D40009A6812F0010FF1D01B7B05F8013BE38F7D
:101D5000013B9BB2E387EEE7FFF7F2F8A0EB080048
:101D6000B042E8D30320A5E7002E35D0B6F1FF3FFF
:101D70000FD1E38F9BB2A3B123689A6812F0010FD1
:101D8000F2D0DB6825F8023BE38F013B9BB2E3878F
:101D9000EFE7FFF7D5F8A0EB0800B042E9D3032046
:101DA00088E76368B3F5827F03D0636DB3B9002021
:101DB00080E7A368B3F5004F02D0B3F5806FF4D18C
:101DC0002268136823F040031360EEE7012071E7F7
:101DD00001206FE703206DE703206BE7012069E72F
:101DE00002206DE7002800F0BB8170B582B0044688
:101DF000036813F0010F3BD0A74B9B6803F00C0363
:101E0000042B2CD0A44B9B6803F00C03082B21D08F
:101E10006368B3F5803F4FD0B3F5A02F52D09E4BEF
:101E20001A6822F480321A601A6822F480221A603A
:101E30006368002B50D0FFF783F80546964B1B686C
:101E400013F4003F14D1FFF77BF8401B6428F5D949
:101E500003208AE1904B5B6813F4800FD8D08E4B3F
:101E60001B6813F4003F03D06368002B00F07A81F5
:101E7000236813F0020F55D0874B9B6813F00C0FAB
:101E80003ED0854B9B6803F00C03082B33D0E368EE
:101E9000002B68D0814B01221A60FFF751F80546EC
:101EA0007D4B1B6813F0020F54D1FFF749F8401B1C
:101EB0000228F5D9032058E1774A136843F48033A8
:101EC0001360B5E7744B1A6842F480221A601A68EE
:101ED00042F480321A60ABE7FFF732F805466E4BEA
:101EE0001B6813F4003FC3D0FFF72AF8401B642897
:101EF000F5D9032039E1684B5B6813F4800FC6D134
:101F0000654B1B6813F0020F04D0E368012B01D06E
:101F100001202AE1604A136823F0F803216943EAAB
:101F2000C1031360236813F0080F40D0636963B3E3
:101F30005B4B01221A60FFF703F80546564B5B6FB7
:101F400013F0020F33D1FEF7FBFF401B0228F5D937
:101F500003200AE1504A136823F0F803216943EA99
:101F6000C1031360DEE74D4B00221A60FEF7E8FF65
:101F70000546494B1B6813F0020FD3D0FEF7E0FF74
:101F8000401B0228F5D90320EFE0454B00221A60E0
:101F9000FEF7D6FF0546404B5B6F13F0020F06D0ED
:101FA000FEF7CEFF401B0228F5D90320DDE02368B1
:101FB00013F0040F79D0384B1B6C13F0805F33D1D2
:101FC00000230193344B1A6C42F080521A641B6C4C
:101FD00003F080530193019B0125324B1B6813F4DE
:101FE000807F23D0A368012B34D0052B38D02A4B17
:101FF0001A6F22F001021A671A6F22F004021A67A0
:10200000A368002B36D0FEF79BFF0646224B1B6FC2
:1020100013F0020F48D1FEF793FF801B41F2883383
:102020009842F3D90320A0E00025D6E71D4A1368A3
:1020300043F480731360FEF783FF0646194B1B6859
:1020400013F4807FCED1FEF77BFF801B0228F5D9E9
:1020500003208AE0104A136F43F001031367CFE7B0
:102060000D4B1A6F42F004021A671A6F42F0010218
:102070001A67C5E7FEF764FF0646074B1B6F13F0B0
:10208000020F11D0FEF75CFF801B41F288339842AB
:10209000F3D9032069E000BF003802400000474246
:1020A000800E474200700040E5B9A369002B5BD069
:1020B000304A926802F00C02082A58D0022B17D03E
:1020C0002D4B00221A60FEF73BFF0446294B1B688C
:1020D00013F0007F42D0FEF733FF001B0228F5D932
:1020E000032042E0234A136C23F080531364DCE79F
:1020F000214B00221A60FEF723FF05461D4B1B688B
:1021000013F0007F06D0FEF71BFF401B0228F5D915
:1021100003202AE0E369226A1343626A43EA8213D6
:10212000A26A5208013A43EA0243E26A43EA0263BE
:10213000104A5360104B01221A60FEF701FF04465B
:102140000C4B1B6813F0007F06D1FEF7F9FE001B55
:102150000228F5D9032008E0002006E0002004E072
:1021600001207047012000E0002002B070BD012076
:10217000FBE700BF0038024060004742264B9B68E7
:1021800003F00C03042B44D0082B01D023487047E4
:102190002DE9F04B204B5A6802F03F025B6813F4C4
:1021A000800F13D01C4B5968C1F3881100231C48C1
:1021B000A1FB0001FEF7F8FC174B5B68C3F301437A
:1021C00001335B00B0FBF3F0BDE8F08B124B5B68B2
:1021D000C3F388131E4600275C010025E41A65EB53
:1021E0000705A90141EA9461A001001B61EB05010B
:1021F000CB0043EA5073C400A01943EB07018B02E4
:1022000043EA90538402204619460023FEF7CCFC93
:10221000D2E70348704700BF003802400024F400B2
:1022200040787D01002800F09D8070B504464F4B3A
:102230001B6803F00F038B4209D2CBB24B4A1370D9
:10224000136803F00F038B4201D0012070BD236897
:1022500013F0020F17D013F0040F04D0444A936810
:1022600043F4E0539360236813F0080F04D0404A0E
:10227000936843F4604393603D4A936823F0F0030E
:10228000A068034393600D46236813F0010F32D01A
:102290006368012B21D09A1E012A25D9344A12687D
:1022A00012F0020F60D032498A6822F00302134311
:1022B0008B60FEF745FE06462D4B9B6803F00C0332
:1022C0006268B3EB820F16D0FEF73AFE801B41F234
:1022D00088339842F0D90320B8E7254A126812F4EF
:1022E000003FE0D10120B1E7214A126812F0007FDF
:1022F000D9D10120AAE71D4B1B6803F00F03AB42A5
:1023000009D9EAB2194B1A701B6803F00F03AB42EC
:1023100001D001209AE7236813F0040F06D0144A75
:10232000936823F4E053E1680B439360236813F050
:10233000080F07D00E4A936823F46043216943EAEB
:10234000C1039360FFF71AFF094B9B68C3F30313A4
:10235000084AD35CD840084B18600F20FEF7A4FD54
:10236000002073E70120704701206FE7003C024026
:10237000003802408878000808000020014B1868E7
:10238000704700BF0800002008B5FFF7F7FF044BB7
:102390009B68C3F38223034AD35CD84008BD00BFC7
:1023A000003802409878000808B5FFF7E7FF044BB3
:1023B0009B68C3F34233034AD35CD84008BD00BFD7
:1023C000003802409878000800B583B002A901F8EF
:1023D000010D01231A46034800F014FB03B05DF819
:1023E00004FB00BF3003002008B51B4B1B68002115
:1023F000986803F0DFFA1821184801F0A9FD1821A8
:10240000174801F0A5FD01F095FE02F059FC40F2DD
:10241000E51240F24621134802F0C2FC40F24E227F
:102420004FF42871104802F0BBFC40F2262240F223
:1024300012210E4802F0B4FC0D4A00235370937031
:1024400053720C4A13800C4A1380882002F0E8F97A
:10245000722002F0E5F908BD0C000020B403002052
:1024600070030020600500205005002010A200200D
:102470000C050020EC040020EE040020FEE7000024
:1024800000B595B000220192284B196C41F08051A3
:1024900019641B6C03F080530193019B0292244B3F
:1024A000196841F4804119601B6803F4804302936A
:1024B000029B0223089301210B9110210C910E9392
:1024C0000F92082210925022119212930423139318
:1024D00008A8FFF787FC08BB0F2303930221049190
:1024E000002305934FF480520692079303A8FFF749
:1024F00099FEB8B9FFF742FF0E4BA3FB00308009ED
:1025000000F0C0FD042000F0D3FD00220F214FF0A9
:10251000FF3000F077FD15B05DF804FBAB210648F5
:10252000FFF7ACFFB9210448FFF7A8FF00380240CD
:1025300000700040D34D6210AC78000808B5FEF77B
:10254000D9FCFFF79DFFFFF733F802F009FC00F01C
:1025500015F800F0FDFA01F01DFD00F0C3FA00F0DF
:1025600045FC00F0C7FBFEF71DFEFEF781FEFFF7FE
:102570003BFF02F0ADF902F0F7F9FAE708B50B48B6
:102580000B4B03604FF41653436000238360C3601A
:1025900003610C2242618361C36100F004FA00B957
:1025A00008BD42210348FFF769FFF9E73003002027
:1025B00000480040B87800080268124B9A4200D0E8
:1025C000704700B587B0002300930F4B1A6C42F49C
:1025D00080221A641B6C03F480230093009B4FF449
:1025E0004063019302230293012303930323049383
:1025F0000723059301A90548FEF7E2FC07B05DF843
:1026000004FB00BF004800400038024000040240C4
:102610002DE9F843044601680A6922F44052C36870
:1026200013430B610168CA6822F4164222F00C02BF
:1026300083680069034360690343E069034313430C
:10264000CB6021684A6922F44072A36913434B614D
:10265000E369B3F5004F60D02368B84A934200F0B5
:10266000148102F58062934200F00F81FFF78CFE27
:1026700000EB800000EB80006568AD00B0FBF5F575
:10268000AF4FA7FB05356D092E01FFF77DFE00EB6F
:10269000800000EB80006568AD00B0FBF5F9FFF746
:1026A00073FE00EB800000EB80006568AD00B0FBBE
:1026B000F5F5A7FB05356D094FF0640808FB159586
:1026C0002D013235A7FB05356D0905F0F0053544C0
:1026D000FFF75AFE00EB800000EB80006668B60052
:1026E000B0FBF6F6FFF750FE00EB800000EB800039
:1026F00063689B00B0FBF3F0A7FB0030400908FBC8
:1027000010684FEA081808F13208A7FB0837C7F32A
:10271000431723682F449F600DE12368874A934243
:102720005BD002F58062934257D0FFF72DFE00EB9D
:10273000800000EB800065686D00B0FBF5F5804F10
:10274000A7FB05356D092E01FFF71EFE00EB80008B
:1027500000EB800065686D00B0FBF5F9FFF714FE33
:1027600000EB800000EB800065686D00B0FBF5F5C4
:10277000A7FB05356D094FF0640808FB1595ED00C2
:102780003235A7FB05356D096D0005F4F875354444
:10279000FFF7FAFD00EB800000EB80006668760032
:1027A000B0FBF6F6FFF7F0FD00EB800000EB8000D9
:1027B00063685B00B0FBF3F3A7FB03235B0908FB33
:1027C00013684FEAC80808F13208A7FB0837C7F3B7
:1027D000421723682F449F60ADE0FFF7E5FD00EB53
:1027E000800000EB800065686D00B0FBF5F5544F8C
:1027F000A7FB05356D092E01FFF7D6FD00EB800024
:1028000000EB800065686D00B0FBF5F9FFF7CCFDCB
:1028100000EB800000EB800065686D00B0FBF5F513
:10282000A7FB05356D094FF0640808FB1595ED0011
:102830003235A7FB05356D096D0005F4F875354493
:10284000FFF7B2FD00EB800000EB800066687600C9
:10285000B0FBF6F6FFF7A8FD00EB800000EB800070
:1028600063685B00B0FBF3F3A7FB03235B0908FB82
:1028700013684FEAC80808F13208A7FB0837C7F306
:10288000421723682F449F6055E0FFF78DFD00EB52
:10289000800000EB80006568AD00B0FBF5F5284FC7
:1028A000A7FB05356D092E01FFF77EFD00EB8000CB
:1028B00000EB80006568AD00B0FBF5F9FFF774FD33
:1028C00000EB800000EB80006568AD00B0FBF5F523
:1028D000A7FB05356D094FF0640808FB15952D0120
:1028E0003235A7FB05356D0905F0F0053544FFF7D6
:1028F0005BFD00EB800000EB80006668B600B0FB7B
:10290000F6F6FFF751FD00EB800000EB80006368F6
:102910009B00B0FBF3F0A7FB0030400908FB1068F8
:102920004FEA081808F13208A7FB0837C7F3431726
:1029300023682F449F60BDE8F88300BF001001406A
:102940001F85EB512DE9F04105460F461646984686
:10295000069C2B681B6837EA03030CBF0123002386
:10296000B3421DD1B4F1FF3FF3D02CB1FEF7E8FA2A
:10297000A0EB0800A042ECD92A68D36823F4D073F6
:10298000D3602A68536923F001035361202385F83B
:10299000393085F83A30002385F83830032000E0DC
:1029A0000020BDE8F08158B310B5044690F83930E6
:1029B0000BB3242384F839302268D36823F40053FE
:1029C000D3602046FFF724FE2268136923F4904366
:1029D00013612268536923F02A0353612268D36884
:1029E00043F40053D3600020E063202384F839309F
:1029F00084F83A3010BD80F83830FFF7DDFDD8E7B5
:102A0000012070472DE9F04182B01E4690F8393020
:102A1000DBB2202B55D104460D469046002955D0F7
:102A2000002A55D090F83830012B53D0012380F87C
:102A300038300023C363212380F83930FEF780FA51
:102A40000746A4F82480A4F8268010E000963B46B0
:102A5000002280212046FFF775FF00283CD12B88FB
:102A60002268C3F3080353602369C3B90235E38CBA
:102A70009BB2B3B1E38C013B9BB2E384A368B3F593
:102A8000805FE3D000963B46002280212046FFF77E
:102A900059FF18BB2A7823685A600135E7E70135EA
:102AA000E5E700963B46002240212046FFF74AFF1B
:102AB0000346A8B9202284F83920002284F838205F
:102AC00000E00223184602B0BDE8F0810123F9E7D7
:102AD0000123F7E70223F5E70323F3E70323F1E7F5
:102AE0000323EFE700B58DB01648174B03600023B2
:102AF000436083604FF6FF72C2600361012203925C
:102B00000493059206930793089309920A930B93F3
:102B100003A901F004F950B900230193029301A91C
:102B20000848FEF7EFFC38B90DB05DF804FBB6219C
:102B30000648FFF7A3FCEFE7BD210448FFF79EFC22
:102B4000F2E700BFB403002000040040C47800088E
:102B500000B58DB01648174B0360002343608360B7
:102B60004FF6FF72C2600361012203920493059243
:102B700006930793089309920A930B9303A901F014
:102B8000CEF850B900230193029301A90848FEF73B
:102B9000B9FC38B90DB05DF804FBD7210648FFF742
:102BA0006DFCEFE7DE210448FFF768FCF2E700BFA9
:102BB0007003002000080040C478000882B0036859
:102BC000104A934204D0B3F1804F0ED002B0704748
:102BD000002300930C4B5A6C42F001025A645B6C68
:102BE00003F001030093009BF0E700230193064BE1
:102BF0001A6C42F001021A641B6C03F0010301938A
:102C0000019BE3E7000001400038024000B589B0B5
:102C100003681D4A934205D01C4A93421BD009B059
:102C20005DF804FB0023019302F50D32116C41F0B5
:102C300002011164126C02F002020192019AC02298
:102C400003920222049205930693079203A9104867
:102C5000FEF7B6F9E3E70023029302F50C32116C9C
:102C600041F004011164126C02F004020292029A13
:102C7000C02203920222049205930693079203A9AD
:102C80000448FEF79DF9CAE7000400400008004030
:102C9000000002400004024000B587B00368134AF8
:102CA000934205D0B3F1804F11D007B05DF804FB1B
:102CB0004FF4706301930223029300230393049360
:102CC0000123059301A90A48FEF77AF9EDE72023CD
:102CD000019302230293002303930493012305939A
:102CE00001A90348FEF76CF9DFE700BF00000140CF
:102CF0000000024000B591B039483A4B036001230F
:102D000043600023836040F21F32C260036143616D
:102D100000F0ECFF00283FD100230E930F930EA983
:102D20002F48FEF7EFFB00283BD1602307930022DA
:102D3000089209920A920B920C920D9207A92848C8
:102D400001F06CF8002831D1042207A9244801F0D1
:102D500065F800282FD1082207A9214801F05EF864
:102D600070BB0C2207A91E4801F058F868BB00236D
:102D7000009301930293039304934FF4005205923E
:102D8000069369461648FEF7E6FB18BB1448FFF7A2
:102D900083FF11B05DF804FB49211348FFF76EFB78
:102DA000BAE750211048FFF769FBBEE75C210E48E7
:102DB000FFF764FBC8E761210B48FFF75FFBCAE739
:102DC00066210948FFF75AFBCBE76B210648FFF75E
:102DD00055FBCCE777210448FFF750FBD6E700BF4F
:102DE0000C04002000000140C478000800B58BB03E
:102DF0001B484FF080430360092343600023836036
:102E000040F2E732C260036100F070FFC0B90023F6
:102E10000893099308A91248FEF774FBA8B9602328
:102E20000193002202920392059201A90C4800F03E
:102E3000F5FF78B90A48FFF72FFF0BB05DF804FBE8
:102E40008A210848FFF71AFBE1E791210548FFF7BF
:102E500015FBE4E79A210348FFF710FBEAE700BF00
:102E600048040020C478000810B50C461A4B4FF0F7
:102E700080421A60586000229A6040F2CF71D96097
:102E80001A615A61184600F031FF98B9134960235E
:102E90000B604C6000228A60CA600A614A618A61E4
:102EA0000D4800F0BBFF58B900210B4801F034F881
:102EB00060B910BD40F2B7110948FFF7DFFAE5E746
:102EC00040F2C3110648FFF7D9FAEDE740F2C71107
:102ED0000348FFF7D3FAECE748040020F003002092
:102EE000C478000810B4354C626A12B2344B596A87
:102EF00009B2002060625862324B1A604942596040
:102F000007EE902AF8EEE75A9FED2F5A65EE855AA4
:102F1000B1EE053AC5EE836A76EEA66ADFED2B3A8E
:102F200066EEA36A9FED2A4A66EE846ADFED294ABF
:102F3000C6EEA47AC3ED047A07EE901AB8EEE76AFB
:102F400026EE056A86EE037A37EE077A27EE237AB5
:102F500027EE047AC7EE247AC3ED057A0A4407EE19
:102F6000902AF8EEE77A67EE857A87EE835A65EE67
:102F7000237A67EE847A87EEA45A83ED065AD3ED5E
:102F8000077A77EEA66AC3ED076AD3ED087A37EEC3
:102F9000877A83ED087A9FED107A65EE875ADFED28
:102FA0000F7A65EEA75AC3ED025A26EE076A26EE9F
:102FB000276A83ED036A5DF8044B70470004004004
:102FC00000080040200500200000803ADB0F494047
:102FD000CDCC44416F12833A00007A440000704225
:102FE000074AD36823F4E0631B041B0C000200F4BF
:102FF000E060184340F0BF6040F40030D06070479C
:1030000000ED00E030B4174BDB68C3F30223C3F1DB
:103010000704042C28BF04241D1D062D18D9033BCA
:103020004FF0FF3505FA04F421EA0401994005FA4E
:1030300003F322EA0303194300280BDB0901C9B299
:1030400000F1604000F5614080F8001330BC70472B
:103050000023E5E700F00F000901C9B2024B195443
:10306000F4E700BF00ED00E014ED00E000F01F0207
:10307000400901239340024A42F82030704700BFC4
:1030800000E100E00138B0F1807F0AD2064B5860C1
:10309000064AF02182F823100020986007221A6067
:1030A00070470120704700BF10E000E000ED00E035
:1030B000042805D0054A136823F004031360704701
:1030C000024A136843F004031360704710E000E005
:1030D000704708B5FFF7FCFF08BD0000494B5A6870
:1030E00022F440325A605A6841680A435A600268C2
:1030F000536823F48073536002685368016943EA9C
:10310000012353600268536823F0407353600268E0
:10311000536881680B4353600268936823F400632B
:10312000936002689368C1680B439360826A364B70
:103130009A4249D00268936823F0706393600268F2
:103140009368816A0B4393600268936823F040534D
:10315000936002689368C16A0B4393600268936846
:1031600023F00203936002689368816943EA410394
:103170009360036A002B32D10268536823F4006322
:1031800053600268D36A23F47003D3620168CB6A88
:10319000C269013A43EA0253CB620268936823F49E
:1031A0000073936002689368016B43EA4123936064
:1031B0000268936823F480639360026893684169AE
:1031C00043EA8123936070470268936823F0706339
:1031D00093600268936823F040539360BEE70268EF
:1031E000536843F4006353600268536823F46043F8
:1031F000536001684B68426A013A43EA42334B60CC
:10320000BFE700BF002301400100000F30B310B53D
:103210000446036C43B1236C13F0100F0AD0012055
:10322000002384F83C3010BD436480F83C30FEF746
:1032300057F8F0E7236C23F4885323F0020343F09C
:10324000020323642046FFF749FF00206064236CDB
:1032500023F0030343F001032364E1E701207047F7
:1032600030B583B00023019390F83C30012B00F07F
:103270008180012380F83C300468A36813F0010FBB
:1032800013D1A36843F00103A3603F4B1C683F4B7D
:10329000A3FB0434A40C04EB4404019402E0019C5D
:1032A000013C0194019C002CF9D103689C6814F046
:1032B000010F61D0046C24F4E06424F0010444F4B0
:1032C000807404645B6813F4806F05D0036C23F48E
:1032D000405343F480530364036C13F4805F36D08F
:1032E000436C23F00603436413460446002280F82F
:1032F0003C20826B2648D063A26B26481064A26BE8
:103300002548D06422686FF0220010602568686844
:1033100040F0806068602568A86840F48070A8600C
:1033200020680A4600F14C01A06B00F087FA1B4BA5
:103330005B6813F01F0F0DD123689A6812F0405F8D
:103340001DD19A6842F080429A60002015E0002367
:103350004364C9E72368124A934201D000200CE07D
:103360009A6812F0405F0CD19A6842F080429A60ED
:10337000002002E0022000E0002003B030BD002069
:10338000FBE70020F9E700BF0800002083DE1B43B5
:103390000534000867340008733400080023014036
:1033A0000020014090F83C30012B28D010B5044695
:1033B000012380F83C300268936823F00103936096
:1033C00003689A6812F0010F04D00020002384F8EB
:1033D0003C3010BD9A6822F480729A60806B00F0D5
:1033E00067FA2268536823F080635360236C23F4E8
:1033F000885323F0010343F001032364E6E702202E
:103400007047704708B5836B1A6C12F0500F03D0E9
:103410009B6BDB6C984708BD1A6C42F400721A640F
:103420001A68916811F0405F19D19969B9B9D16AE8
:1034300011F4700F03D0916811F4806F0FD15168AF
:1034400021F0200151601A6C22F480721A641A6C07
:1034500012F4805F03D11A6C42F001021A6418461C
:10346000FFF7CFFFD7E708B5806BFEF743F808BD3D
:10347000704708B5806B40230364436C43F004033A
:103480004364FFF7F5FF08BD30B482B00023019319
:1034900090F83C30012B00F0B780012380F83C30DD
:1034A0000B68092B3ED90568EA689BB203EB43031E
:1034B0001E3B072404FA03F322EA0303EB600568CA
:1034C000EA688C680B8803EB43031E3B04FA03F3A2
:1034D0001343EB604B68062B3AD805686A6B03EB25
:1034E0008303053B1F2404FA03F322EA03036B63FF
:1034F00005686A6B4B6803EB8303053B0C8804FA91
:1035000003F313436B630268404B9A4250D0026846
:103510003E4B9A4255D0002380F83C30184602B00A
:1035200030BC704705682A699BB203EB430307244C
:1035300004FA03F322EA03032B6105682A698C6805
:103540000B8803EB430304FA03F313432B61C1E736
:103550000C2B16D805682A6B03EB8303233B1F242F
:1035600004FA03F322EA03032B6305682A6B4B6812
:1035700003EB8303233B0C8804FA03F313432B630D
:10358000C1E70568EA6A03EB8303413B1F2404FAA1
:1035900003F322EA0303EB620568EA6A4B6803EB74
:1035A0008303413B0C8804FA03F31343EB62AAE75D
:1035B0000B68122BABD1164A536843F48003536057
:1035C000A5E70B68103B012BA5D8114A536843F4BB
:1035D000000353600B68102B9DD10E4B1B6802F14A
:1035E000467202F52E3202F28332A2FB03239B0CB9
:1035F00003EB83035A00019202E0019B013B01931C
:10360000019B002BF9D186E7022088E700200140CA
:10361000002301400800002008B50320FFF7E0FC6C
:10362000002211466FF00B00FFF7ECFC0022114660
:103630006FF00A00FFF7E6FC002211466FF0090068
:10364000FFF7E0FC002211466FF00400FFF7DAFC00
:10365000002211466FF00300FFF7D4FC0022114650
:103660006FF00100FFF7CEFC00220F214FF0FF307A
:10367000FFF7C8FC08BD30B405682C6824F480242A
:103680002C60046863608368402B05D003689960F0
:103690000368DA6030BC704703689A600368D960D9
:1036A000F8E700000268D3B2103B0B49A1FB0313FB
:1036B0001B090A49C95CC165032B06D822F47F7235
:1036C00022F003028265806D704722F47F7222F03F
:1036D000030204328265F6E7ABAAAAAAD0780008F2
:1036E000836A826992B9012B0AD01BB1022B01D0E7
:1036F00000207047C36A13F0807F2CD100207047F0
:10370000C36AB3F1C07F28D000207047B2F5005FD4
:1037100005D0022B29D9032B15D000207047032B8D
:1037200003D8DFE803F01C041C0A00207047C36ABA
:1037300013F0807F15D100207047C36AB3F1C07FBA
:1037400011D000207047C36A13F0807F01D00120A0
:10375000704700207047012070470120704701200A
:10376000704701207047012070470120704700001A
:1037700070B50446FDF7E4FB002C5BD00546002342
:1037800084F83430022384F835302268136823F03B
:103790000103136023681A6812F0010F0AD0FDF7C5
:1037A000CFFB401B0528F5D920236365032084F84F
:1037B000350070BD1A68204810406168A2680A434D
:1037C000E1680A4321690A4361690A43A1690A431E
:1037D000E1690A43216A0A430243616A04291ED04F
:1037E0001A602668756925F00705636A1D43042B76
:1037F00007D1A36A1D43E36A1BB12046FFF770FFA0
:1038000090B975612046FFF74DFFE26D3F2393406D
:10381000836000206065012384F83530C9E7E16AE0
:10382000206B01430A43DBE740236365012084F8F2
:103830003500BEE70120BCE73F8010F038B5856D4C
:1038400090F83440012C31D0012480F8344090F8B5
:103850003540E4B2012C04D0002380F8343002203B
:1038600038BD0446022084F83500002060652046FB
:10387000FFF701FFE26D3F239340AB6022681368BE
:1038800043F0160313602268536943F080035361C9
:10389000236C23B12268136843F008031360226885
:1038A000136843F0010313600020D9E70220D7E733
:1038B00070B50446866DFDF743FB94F83530DBB2F6
:1038C000022B06D080236365002384F83430012066
:1038D00070BD05462268136823F016031360226842
:1038E000536923F080035361236CE3B122681368AA
:1038F00023F0080313602268136823F001031360A8
:1039000023681B6813F0010F11D0FDF719FB401B52
:103910000528F5D920236365002384F8343003207B
:1039200084F83500D4E7A36C002BDFD1E3E7E26D28
:103930003F239340B360002084F83400012384F8CF
:103940003530C5E7F0B583B0044600230193724BD0
:103950001D68724BA3FB0535AD0A876D3E68C26DCD
:1039600008239340334210D003681A6812F0040F02
:103970000BD01A6822F004021A60C26D082393402B
:10398000BB60436D43F001034365E26D0123934047
:10399000334209D02268526912F0800F04D0BB6014
:1039A000636D43F002036365E26D04239340334289
:1039B00009D02268126812F0020F04D0BB60636D58
:1039C00043F004036365E26D10239340334224D037
:1039D0002268126812F0080F1FD0BB6023681A68B3
:1039E00012F4802F0DD01B6813F4002F04D1236C28
:1039F0009BB12046984710E0A36C73B120469847CE
:103A00000BE01A6812F4807F03D11A6822F00802D2
:103A10001A60236C0BB120469847E26D2023934037
:103A2000334255D02268126812F0100F50D0BB609C
:103A300094F83530DBB2052B0ED023681A6812F4E7
:103A4000802F33D01B6813F4002F2AD1636C002B16
:103A50003ED0204698473BE02268136823F01603C7
:103A600013602268536923F080035361236CA3B170
:103A70002268136823F008031360E26D3F2393402C
:103A8000BB60002384F83430012384F83530236D83
:103A9000002B3FD0204698473CE0A36C002BE7D199
:103AA000EBE7E36BA3B12046984711E01A6812F4E4
:103AB000807F09D11A6822F010021A60002384F86E
:103AC0003430012384F83530E36B0BB1204698473E
:103AD000636DFBB1636D13F0010F17D0052384F8FC
:103AE00035302268136823F001031360019B013312
:103AF0000193AB4204D823681B6813F0010FF5D182
:103B0000002384F83430012384F83530E36C0BB1A2
:103B10002046984703B0F0BD08000020B5814E1B39
:103B200070B4036A23F001030362036A4268846984
:103B300024F073040D6845EA040623F002048B6840
:103B400023430C4DA84202D00B4CA0420BD123F0D2
:103B50000803CD682B4323F0040322F440724D691F
:103B600015438A692A43426086614A684263036258
:103B700070BC7047000001400004014030B4036A8B
:103B800023F480730362036A4268C46924F07304F7
:103B90000D682C4323F400738D6843EA05230E4D12
:103BA000A84203D005F58065A8420ED123F4006336
:103BB000CD6843EA052323F4806322F440524D6923
:103BC00042EA05128D6942EA05124260C4614A6800
:103BD000C263036230BC70470000014030B4036A26
:103BE00023F480530362036A4468C26922F4E64204
:103BF0000D6842EA052223F400538D6843EA053339
:103C0000094DA84203D005F58065A84204D124F4EB
:103C100080444D6944EA85144460C2614A68026484
:103C2000036230BC704700BF0000014003682E4AA9
:103C3000904212D0B0F1804F0FD0A2F57C4290425A
:103C40000BD002F58062904207D002F5806290426C
:103C500003D002F57842904203D123F070034A6802
:103C60001343214A90422AD0B0F1804F27D0A2F5C9
:103C70007C42904223D002F5806290421FD002F530
:103C8000806290421BD002F57842904217D002F534
:103C90007052904213D002F5806290420FD002F52C
:103CA000806290420BD0A2F59832904207D002F584
:103CB0008062904203D002F58062904203D123F4E7
:103CC0004073CA68134303608B68C3620B688362E6
:103CD000054B984203D003F58063984201D10B69EC
:103CE000036301234361704700000140A8B110B590
:103CF000044690F839305BB1022384F83930211D35
:103D00002068FFF793FF012384F83930002010BDAD
:103D100080F83830FEF752FFEEE7012070470028A8
:103D200047D0F8B505460C4690F83930002B3BD00B
:103D3000022385F83930294651F8042B936823F083
:103D4000070393602868FFF771FF29688A688E6906
:103D50000F6A2068104326F4407626F00306A26816
:103D6000A36942EA0323334323F47C4323F0FC0397
:103D7000E668E26946EA02261E43226A13032269C4
:103D800043EA0213334327F0AA076268646942EAF0
:103D900004123A43886029688B612B681A620123F8
:103DA00085F839300020F8BD80F83830FEF72EFF56
:103DB000BEE701207047000030B4036A23F010030F
:103DC0000362036A4468826922F4E6420D6842EAAB
:103DD000052223F020038D6843EA05130E4DA84207
:103DE00003D005F58065A8420ED123F08003CD688D
:103DF00043EA051323F0400324F440644D6944EA88
:103E000085048D6944EA8504446082614A6882635E
:103E1000036230BC704700BF0000014038B590F825
:103E20003830012B66D00D460446012380F8383027
:103E3000022380F839300C2A1AD8DFE802F007197B
:103E40001919201919193419191947000068FFF7B1
:103E500067FE2268936943F00803936122689369BF
:103E600023F0040393612268936929690B439361EA
:103E7000012384F83930002084F8380038BD006808
:103E8000FFF79AFF2268936943F400639361226805
:103E9000936923F48063936122689369296943EAF3
:103EA00001239361E4E70068FFF768FE2268D369A5
:103EB00043F00803D3612268D36923F00403D3617C
:103EC0002268D36929690B43D361D1E70068FFF702
:103ED00085FE2268D36943F40063D3612268D36905
:103EE00023F48063D3612268D369296943EA0123FB
:103EF000D361BDE70220C1E710B4012303FA01F446
:103F0000036A23EA04030362036A8A4013430362D9
:103F10005DF8044B7047000010B5044601220068AC
:103F2000FFF7EAFF2368094A934203D002F5806253
:103F3000934203D15A6C42F400425A6422681368D7
:103F400043F001031360002010BD00BF00000140DA
:103F500010B5044661B1042916D001220021006881
:103F6000FFF7CAFF012204212068FFF7C5FF04E024
:103F7000012200210068FFF7BFFF2268136843F0A9
:103F800001031360002010BD012204210068FFF727
:103F9000B3FFF2E708B50E480E4B03604FF482738F
:103FA000436000238360C360036143614FF4007288
:103FB0008261C3610362436283620A23C362FDF7C5
:103FC0002EFC00B908BD46210348FEF757FAF9E771
:103FD0008404002000380040D87800080268124BA2
:103FE0009A4200D0704700B587B00021009103F5D8
:103FF00000331A6C42F480421A641B6C03F4804351
:104000000093009B4FF460430193022302930391BA
:10401000032304930523059301A90448FCF7D0FF6B
:1040200007B05DF804FB00BF003800400004024008
:1040300030B583B00446114D00224FF4805128461C
:10404000FDF7A9F864F07F0402A901F8014D0C4CBA
:10405000642301222046FDF722FC642301220DF196
:1040600006012046FDF70AFE01224FF48051284642
:10407000FDF791F89DF8060003B030BD0004024042
:104080008404002030B583B00446134D00224FF461
:1040900080512846FDF77FF864F07F0402A901F8FB
:1040A000014D0E4C642301222046FDF7F8FB6423EA
:1040B00001220DF106012046FDF7E0FD9DF80640C6
:1040C000240224B201224FF480512846FDF763F800
:1040D000204603B030BD00BF00040240840400202D
:1040E00070B584B08DF8071000F07F0004AC04F8C0
:1040F000010D0E4D00224FF480512846FDF74BF87C
:104100000B4E6423012221463046FDF7C8FB642391
:1041100001220DF107013046FDF7C1FB01224FF4EA
:1041200080512846FDF737F804B070BD0004024006
:104130008404002008B5002002E07520FFF778FF16
:104140007028FAD10146084801F01CFC00216B20C0
:10415000FFF7C6FF00211A20FFF7C2FF18211B201E
:10416000FFF7BEFF08BD00BFE478000810B5472088
:10417000FFF788FF04464820FFF75AFF00B22043AC
:1041800000B2024B5C68001B00B210BD8805002025
:10419000044B00225A601A8003490A700022DA6038
:1041A0009A607047880500200C05002010B5472054
:1041B000FFF768FF04464820FFF73AFF00B20443C8
:1041C0000E4BB3F9003040F2FE3293420DDD0B4945
:1041D0004B680B4A82FB03021A44DB17C3EB6223D2
:1041E0004B60084B01221A7010BD24B2034A51687B
:1041F0000C44546001331380F6E700BF88050020AB
:10420000030820800C05002008B5012802D0FFF724
:10421000CDFF08BDFFF7AAFF07EE900AF8EEE76AA8
:104220009FED087AC6EE877A074BC3ED047A9FEDBF
:10423000077A67EE877A93ED037A77EE277AC3EDF4
:10424000037AE6E733338341880500206F12833A0F
:1042500070B50D461646002404E0AFF300802870C8
:1042600001340135B442F8DB304670BD70B51646F6
:10427000002405E04D1C0878FEF7A6F80134294615
:10428000B442F7DB304670BD08B503460B4A1268EE
:1042900042B10A4A106803446A46934206D8074A64
:1042A000136008BD054A06491160F2E700F0D0FE30
:1042B0000C2303604FF0FF30F3E700BFF80100204C
:1042C00030A200204FF0FF3070474FF400534B6096
:1042D00000207047012070470020704770EE600A90
:1042E00020EE811ADFED0C7A60EEA77A90ED000ADD
:1042F00077EE807AC0ED007A67EEA11A91ED007A30
:1043000030EEC77A27EE022AC1ED000A71EE211ABB
:1043100031EE820A704700BF6F12833A138801336F
:10432000138007EE900AF8EEE77A9FED097A27EE00
:10433000877AB1F9003007EE903AF8EEE77A77EE37
:10434000877AFDEEE77A17EE903A0B80704700BF50
:104350006F12833A10B4354B9980354C0023636259
:10436000A362344C2360344B0024DC70002857DBFC
:10437000324B01241C70C1F5967307EE903AF8EEAB
:10438000E77A9FED2F7A87EE876AC2F5967207EE7D
:10439000902AF8EEE77AC7EE876A07EE900AB8EE41
:1043A000E77A01F5967107EE901AF8EEE77A67EE74
:1043B000865AB6EE005A65EE855A37EE657A67EE94
:1043C000A67A67EE857A77EE677ADFED1E5A87EE7A
:1043D000A57ADFED1D5A26EE256A67EE257A66EE90
:1043E000A56ABCEEC66A194B16EE102A1A80FCEEBE
:1043F000E77A174B17EE902A1A80FCEEE66A154B07
:1044000016EE902A1A80144B4FF081421A60134B1B
:10441000134A1A60134B00221A605DF8044B704770
:10442000404200B2054BFF241C70A4E77005002039
:10443000200500200C0300200C05002014030020A0
:1044400000007A450000964300007A440A050020E7
:10445000F40400201E0500200402002000020020B9
:1044600000002041FC010020064B0122DA70064BBF
:104470004FF081421A60054B054A1A60054B002235
:104480001A6070470C050020040200200002002082
:1044900000002041FC010020F8B52DED048B474BB6
:1044A000DB78DBB2012B23D0454B1A88454B1B88A8
:1044B0009A4260D344490888C1188A4267DB43495D
:1044C000098801440B449A426CDB414BD3ED048ACA
:1044D00093ED059A3F4A00219180D3ED067AF5EEDF
:1044E000407AF1EE10FA0BD1344B5970997007E015
:1044F000374BD3ED068A374B00229A80B0EE689A8C
:10450000344BB3F90430344A92F9002003FB02F330
:1045100007EE903AB8EEE78A304F314E314D324CCB
:1045200097ED002AD6ED001A95ED001A21462F4886
:10453000F0EE680AB0EE480AFFF7D0FEBDEEC00A02
:104540002B4B10EE102A1A8097ED002AD6ED001A98
:1045500095ED001A211D2748F0EE490AB0EE480AF1
:10456000FFF7BCFEBDEEC00A234B10EE102A1A80E6
:10457000BDEC048BF8BD164BD3ED048A93ED059A80
:104580000F4A1E494FF47A60FFF7C8FEB8E7104B98
:10459000D3ED048A93ED059A094A18490020FFF7E4
:1045A000BDFEADE70A4BD3ED048A93ED059A044AAC
:1045B00012491348FFF7B2FEA2E700BF0C05002026
:1045C000EC0400200A050020F40400201E05002051
:1045D000200500207005002014030020FC010020AD
:1045E0000002002004020020440500200C030020EB
:1045F00010030020240300201C0300207405002069
:1046000060F0FFFF10B42D4B998100232C4C2360E8
:104610002C4CA3602C4B00241C71C1F5BE7307EE1B
:10462000903AF8EEE77A9FED297A87EE876AC2F52D
:10463000BE7307EE903AF8EEE77AC7EE876A07EEA8
:10464000900AB8EEE77A01F5BE7307EE903AF8EEFD
:10465000E77A67EE867AF6EE005A67EEA57A77EE8D
:10466000677A02F5BE7307EE103AB8EEC77A27EE06
:10467000267A27EE257A37EEC77ADFED155AC7EE90
:10468000257A9FED147A26EE076A67EE877A66EE42
:10469000876ABCEEC66A104B16EE102A1A80FCEE32
:1046A000E77A0E4B17EE902A1A80FCEEE66A0C4B66
:1046B00016EE902A1A805DF8044B704770050020B2
:1046C00020030020880500200C0500200000FA448B
:1046D0000000BE4300007A44080500204C0500207D
:1046E0002AA20020014B01221A7170470C050020FC
:1046F00008B52B4B1B79DBB2012B17D0294B1A883D
:10470000294B1B889A4238D328490888C1188A4205
:104710003ADB2749098801440B449A423ADB0023DB
:10472000244A93811E4A9370537002E0214B002269
:104730009A811B4BDB881BB207EE903AF8EEE77AC2
:104740001C4BB3F90C3000EE103A1B4BB8EEC00A0C
:10475000B1EE002AF2EE021A9FED181A1946184817
:10476000D3ED020A20EE270AFFF7B8FDBDEEC00A1E
:10477000144B10EE102A1A8008BD0A4A12494FF451
:10478000FA60FFF7CBFDD4E7064A0F490020FFF798
:10479000C5FDCEE7034A0C490C48FFF7BFFDC8E74B
:1047A0000C050020EE040020080500204C05002028
:1047B0002AA2002070050020900500201F856B3F75
:1047C000200300202C0300207C05002030F8FFFF90
:1047D00008B50E4B1B880E4AB2F9002091B25B1A45
:1047E00061331BB207EE903AF8EEE77A9FED097A53
:1047F00067EE877AFDEEE77A17EE903A19B2064B2C
:104800001980064801F0BEF808BD00BF6005002011
:1048100010A20020CDCCCC3D12030020F47800087B
:1048200008B54FF49671FEF71FFB6420FCF78EFB72
:1048300000210A20FEF718FB08BD000010B5204B30
:104840001B7B012B20D001224FF400511D48FCF7A7
:10485000A2FC1D4B1B7B012B1DD001224FF480417C
:104860001848FCF798FC194B1B7B012B1AD0154CF0
:1048700001224FF480712046FCF78DFC012280213B
:104880002046FCF788FC10BD00224FF400510D4873
:10489000FCF781FCDDE700224FF480410948FCF77A
:1048A0007AFCE0E7074C00224FF480712046FCF7C9
:1048B00072FC002280212046FCF76DFCE3E700BF7C
:1048C00010A20020000802406005002050050020D2
:1048D00010B50021224801F055F800241FE013F123
:1048E0001E0F2DDA013C64B22AE000241D4B002289
:1048F000DA61C4EB4413C4EB83035800C0B25638EA
:1049000000F0FE00FFF78CFFFCF7B4FE01281DD07D
:10491000E0B2FCF7DDFE2146114801F033F8114BFF
:10492000D3ED077AFDEEE77A17EE903A1BB203F16A
:104930001E0292B23C2AE7D91E2BD0DD013464B2AC
:10494000072CD2DC002CD1DA0724CFE74C20FFF76C
:1049500067FF4FF4FA70FCF7F9FA204610BD00BF6C
:10496000FC7800082005002008B5072807D8DFE8F4
:1049700000F0040B111C272E063C00F07FF94FF4C9
:104980007A70FCF7E3FA08BD00F04EFA184B0122EA
:104990005A72F4E700F0D6F9FFF7FAFB4FF4FA6029
:1049A000FCF7D4FA00F086F8E9E700F0CBF9FFF75E
:1049B000EFFB4FF4FA60FCF7C9FA00F0AFF8DEE75E
:1049C00000F0C0F9FFF7E4FB00F0DCF8D7E700F0F7
:1049D000B9F9012000F0DEF9FFF7DAFB4FF4FA60D5
:1049E000FCF7B4FA00F002F9C9E700F00FF9C6E7E6
:1049F0000C05002008B5002211465A20FFF7AAFC3A
:104A0000FFF770FE024B01225A709A705A7208BD6D
:104A10000C05002038B5074C0125E5800022114621
:104A2000B420FFF7EFFDFFF71FFD00236372A570B1
:104A3000657038BD0C05002038B5074C0125E580B0
:104A4000002211465A20FFF7DDFDFFF70DFD002380
:104A50006372A570657038BD0C05002010B5084C58
:104A60004FF6FF73E380002211465A20FFF7CAFD7C
:104A7000FFF7FAFC002363720123A370637010BD7B
:104A80000C05002008B5002211464FF48760FFF79F
:104A900061FCFFF727FE0A20FCF758FA4C20FFF7CD
:104AA000BFFE034B01225A70002159729A7008BD53
:104AB0000C05002008B5FFF79DFF174B5B79DBB2B3
:104AC000012BFAD0144B5B78DBB2012BF5D04FF4FD
:104AD000FA70FCF73BFAFFF7AFFF0F4B5B79DBB2E5
:104AE000012BFAD00C4B5B78DBB2012BF5D04FF4E5
:104AF000FA70FCF72BFAFFF77DFF074B5B79DBB20F
:104B0000012BFAD0044B5B78DBB2012BF5D04C20A3
:104B1000FFF786FE08BD00BF0C05002008B5FFF7B3
:104B200069FF174B5B79DBB2012BFAD0144B5B7832
:104B3000DBB2012BF5D04FF4FA70FCF707FAFFF760
:104B40008DFF0F4B5B79DBB2012BFAD00C4B5B78FE
:104B5000DBB2012BF5D04FF4FA70FCF7F7F9FFF751
:104B600049FF074B5B79DBB2012BFAD0044B5B7832
:104B7000DBB2012BF5D04C20FFF752FE08BD00BF81
:104B80000C05002008B5FFF735FF174B5B79DBB24A
:104B9000012BFAD0144B5B78DBB2012BF5D04FF42C
:104BA000FA70FCF7D3F9FFF735FF0F4B5B79DBB2F7
:104BB000012BFAD00C4B5B78DBB2012BF5D04FF414
:104BC000FA70FCF7C3F9FFF715FF074B5B79DBB20F
:104BD000012BFAD0044B5B78DBB2012BF5D04C20D3
:104BE000FFF71EFE08BD00BF0C05002008B5FFF74B
:104BF00049FF054B5B79DBB2012BFAD0024B5B78A6
:104C0000DBB2012BF5D008BD0C05002010B5154B0B
:104C10001B88154A128815490988154800F0B2FE0C
:104C20000024B4F5FA6F1BD2124904F58C435033BB
:104C300004F59C42203231F9122031F913100E484C
:104C400000F0A0FEFCF716FD012802D00134A4B24A
:104C5000E7E75B20FFF7E4FD4FF49670FCF776F989
:104C600010BD00BF2AA200204C050020080500202E
:104C700028790008C0050020F478000808B500F085
:104C8000D3F8FFF7DBFD0A4BB3F90030094AB2F95C
:104C900000200949B1F90010084800F073FEFCF744
:104CA000E9FC0128EBD15B20FFF7BAFD08BD00BF8E
:104CB00010A2002050050020600500200C7900089B
:104CC00008B500239FED177A08E0174A128807EE0F
:104CD000902AF8EEE77A37EE277A0133092BF4DDD4
:104CE000F2EE047AC7EE276ADFED107A86EEA77A35
:104CF000DFED0F7A27EE277ADFED0E6AC7EE267A10
:104D00009FED0D7A67EE877A0C4BC3ED007A17EEB4
:104D1000900AFBF719FC02460B46094800F032FEE8
:104D200008BD00BF000000001C05002000F07F450A
:104D3000000005430000044233335340F0040020D8
:104D40000079000808B500F06FF8044B1B7B012BBD
:104D5000FBD14C20FFF764FD08BD00BF50050020CB
:104D600000B583B000210191094B1A6B42F4800217
:104D70001A631B6B03F480030193019B0A463820DE
:104D8000FEF740F93820FEF771F903B05DF804FB37
:104D900000380240014B1870704700BF0802002025
:104DA0008180C280704700001A4BB3F900301A4A64
:104DB000B2F90020134403EBD37343F34F03174AB4
:104DC0001380B2F90620934217DA144B00221A73AB
:104DD000134BB3F90020B3F906309A4211DA104BA5
:104DE00000221A730F4BB3F90020B3F906309A4230
:104DF0000BDB0C4B01221A737047084B01221A730C
:104E0000E6E7074B01221A73ECE7064B00221A7300
:104E1000704700BFB0050020A0050020500500200D
:104E20006005002010A2002008B50120FFF7B2FFA6
:104E3000044B00221A80102203490448FEF710FA9E
:104E400008BD00BF28A2002000A2002060020020B0
:104E500008B50A4BB3F90030032B00D008BD084B4E
:104E60001B78012BFAD1FFF79FFF044B00221A8019
:104E7000102204490448FEF7F3F9EFE728A20020C6
:104E80000802002000A2002060020020F0B583B0DC
:104E90000446B0F90030012B2DD0022B6FD00BB19E
:104EA00003B0F0BD4C48FEF77DFA4C4A11884C4BDC
:104EB00019805188598091889980D288DA80494D2B
:104EC000012204212846FCF766F901220821284620
:104ED000FCF761F90023019302E0019B0133019388
:104EE000019B632BF9DD0123238010223B493A48C3
:104EF000FEF7B6F9D4E73B4D002204212846FCF723
:104F00004AF9002208212846FCF745F93248FEF705
:104F100049FA324B9A8834498A80DB88CB803349FE
:104F2000B1F900C02E4EB788B81A1CFA80F008817B
:104F3000D21B0A802E4AB2F90070F088C11A17FA03
:104F400081F111811B1A1380012211462846FCF7BA
:104F500022F9012202212846FCF71DF900230193C2
:104F600002E0019B01330193019B632BF9DD0223D6
:104F70002380102219491848FEF772F990E7194D5D
:104F8000002201212846FCF706F9002202212846CA
:104F9000FCF701F91048FEF705FA104B1A88124980
:104FA0000A805B884B801349B1F900700C4D2E8844
:104FB000B01A17FA80F00881921B0A800E4AB2F9E3
:104FC00000606888C11A16FA81F111811B1A1380DA
:104FD0000323238064E700BF6002002000A20020BA
:104FE000DC04002000080240F804002060050020D6
:104FF000B0050020A005002010A20020DFF834D06A
:10500000002103E00C4B5B58435004310B480C4B20
:1050100042189A42F6D30B4A02E0002342F8043BBE
:10502000094B9A42F9D3FBF7A5FF00F017F8FDF7FB
:1050300085FA704700000220107C00080000002064
:10504000DC010020DC01002030A20020FEE700008F
:10505000014B1868704700BF0C00002070B50D4E62
:105060000D4CA41BA4100025A54209D10B4E0C4CDD
:1050700002F0FCFBA41BA4100025A54205D170BDC5
:1050800056F8253098470135EEE756F82530984711
:105090000135F2E7087C0008087C0008087C00085D
:1050A0000C7C000810B5431E0A44914200D110BD8B
:1050B00011F8014B03F8014FF7E70244034693420E
:1050C00000D1704703F8011BF9E72DE9FF4755ECC4
:1050D000104B0D9FDDF830A0002D0E46914619466D
:1050E000B8BF22462B4627F02007BBBF05F100437F
:1050F0001D4600232D23B8BF1446462F0B7004D045
:10510000452F00D10136022100E0032103AB0193BA
:1051100002AB00933246534645EC104B00F04CFE78
:10512000472F804602D119F0010F26D0462F08EBF9
:10513000060911D198F80030302B0AD10022002343
:1051400020462946FBF7C0FC18B9C6F10106CAF88B
:105150000060DAF8003099440022002320462946F6
:10516000FBF7B2FC38B93022039B4B4505D2591CE2
:1051700003911A70F8E7CDF80C90039B0E9AA3EBFD
:1051800008034046136004B0BDE8F087F7B5002976
:105190000446BABF49422D232B23092904F8022BC8
:1051A000437020DD0DF107031F460A2691FBF6F53B
:1051B00006FB15113031092D03F8011C03F1FF32F4
:1051C000294609DC3031023B02F8011CBB42224671
:1051D00004D3101A03B0F0BD1346E7E713F8012B10
:1051E00004F8012BF2E7302319448370021DC170CB
:1051F000EFE700002DE9F04F8DB00C46DDF8588048
:1052000016461F46054601F009FD0368049318463B
:10521000FAF7DEFF00230A93D8F800300590073331
:1052200023F0070303F1080294F818A0D4F800B0A3
:10523000C8F80020D3E90023C4E91223D4E9128975
:1052400029F000430793CDF818804FF0FF32A74BA9
:10525000DDE90601FBF76AFC70BB4FF0FF32A34BA0
:10526000DDE90601FBF744FC30BB00220023404689
:105270004946FBF733FC10B12D2384F843309C4A98
:105280009C4BBAF1470F8CBF9046984603232BF0F6
:105290000402236122604FF00009009733460BAAF5
:1052A0002146284600F0E6F9013040F08D804FF0AD
:1052B000FF300DB0BDE8F08F42464B4640464946B0
:1052C000FBF734FC10B18C4A8C4BDAE761684B1C5D
:1052D0004BF480620AA83ED1062363600023CDE927
:1052E000020309AB009349EC108B0DF123032260FC
:1052F000CDF804A061682846FFF7E7FE0AF0DF0357
:10530000472B804609D1099BD81C02DB6268934277
:1053100047DDAAF1020A5FFA8AFABAF1650F099924
:1053200024D80139524604F150000991FFF72EFFAD
:105330000A9A1318012A8146236102DC2268D107E8
:1053400001D5013323619DF82330002BA5D02D23F7
:1053500084F84330A1E7BAF1670F00F07781BAF122
:10536000470FBBD10029B9D10123B6E7BAF1660FC7
:1053700019D1002963680CDD216113B92268D207B5
:1053800002D501330B442361099BA3654FF000094B
:10539000D9E713B92268D00701D50233F3E7012317
:1053A000F1E74FF0670ADDE90932934205DB226835
:1053B0002361D107E8D50133E5E7002BD4BFC3F162
:1053C000020301231344DEE723685A0507D4236947
:1053D000424631462846B84701302BD167E7BAF13B
:1053E000650F40F2DC8000220023D4E91201FBF7B4
:1053F0006BFB002833D00123414A31462846B84789
:1054000001303FF454AFDDE909239A4202DB2368FF
:10541000D8070FD5DDE9042331462846B8470130C7
:105420003FF445AF4FF0000804F11A090A9B013B15
:10543000434509DC23689B0700F10381E0680B9B6F
:105440009842B8BF184634E701234A4631462846F9
:10545000B84701303FF42BAF08F10108E6E7099B9C
:10546000002B2BDC0123264A31462846B847013061
:105470003FF41DAF099B23B90A9B13B92368D907D1
:10548000D8D5DDE9042331462846B84701303FF43A
:105490000EAF4FF0000904F11A0A099B5B424B451D
:1054A00001DC0A9B94E70123524631462846B8475F
:1054B00001303FF4FCAE09F10109EEE70A9AA36D51
:1054C0009A42A8BF1A46002A914607DD1346314684
:1054D00042462846B84701303FF4E9AE04F11A03CA
:1054E0004FF0000B29EAE979069315E0FFFFEF7F03
:1054F00044790008407900084C7900084879000890
:10550000507900080123069A31462846B8470130F1
:105510003FF4CDAE0BF1010BD4F858A0AAEB090370
:105520005B45EFDCDDE909239A42D04415DB2368B3
:10553000DA0712D40A9B0999A3EB0A02A3EB010A2A
:105540009245A8BF9246BAF1000F0EDC4FF000085A
:105550002AEAEA7A04F11A0919E0DDE9042331465E
:105560002846B8470130E5D1A1E6534642463146C8
:105570002846B8470130E9D199E601234A46314629
:105580002846B84701303FF492AE08F10108DDE942
:1055900009239B1AA3EB0A034345EEDC4AE70A9A68
:1055A000012A01DCDB073AD5012342463146284671
:1055B000B84701303FF47BAEDDE90423314628468D
:1055C000B847013008F101083FF471AE0A9B002290
:1055D00003F1FF3AD4E912010023FBF775FAC8B9C9
:1055E0005346424631462846B84701300ED15EE662
:1055F0000123524631462846B84701303FF457AEA2
:1056000008F101080A9B013B4345F1DC4B4604F1DC
:105610005002DEE64FF0000804F11A0AF2E7012317
:10562000DFE701234A4631462846B84701303FF4B8
:105630003EAE08F10108E3680B9A9B1A4345F0DC83
:10564000FCE64FF0000804F11909F4E700293FF4E3
:105650008BAE0023CDE9020309AB009349EC108B1C
:105660002260CDF804A00DF123032846FFF72DFD9D
:10567000804648E62DE9F04791461F468A680B6947
:10568000DDF820809342B8BF1346C9F8003091F886
:10569000432006460C4612B10133C9F80030236896
:1056A000990642BFD9F800300233C9F800302568A6
:1056B00015F0060507D104F1190AE368D9F80020AE
:1056C0009B1AAB4228DC94F843302268003318BFA1
:1056D000012392062DD404F1430239463046C047D7
:1056E000013020D02368E568D9F8002003F00603D4
:1056F000042B08BFAD1AA36822690CBF25EAE57523
:1057000000259342C4BF9B1AED184FF000091A34CC
:105710004D451AD1002008E0012352463946304653
:10572000C047013003D14FF0FF30BDE8F0870135AD
:10573000C3E7E1185A1C302081F84300224494F852
:10574000451082F843100233C5E70123224639464B
:105750003046C0470130E6D009F10109D8E7000022
:105760002DE9F04301F1430C0C46097E85B06E290A
:105770001746064698460C9A00F0B38022D8632953
:1057800036D00AD8002900F0B980582900F083806B
:1057900004F1420584F8421032E0642901D06929FD
:1057A000F6D120681368050603F104012AD51B68A9
:1057B0001160002B03DA2D225B4284F843206F48EE
:1057C0000A2239E0732900F09D8008D86F2920D083
:1057D0007029DDD1236843F02003236003E075299D
:1057E00017D07829D4D1782384F84530644855E01F
:1057F0001368191D1B68116004F1420584F84230DA
:1058000001238CE01B68116010F0400F18BF1BB221
:10581000CFE713682568181D1060280601D51B689E
:1058200002E06806FBD51B8854486F2914BF0A2282
:105830000822002184F843106568A560002DC0F29D
:105840009580216821F004012160002B3DD1002DBD
:1058500040F08E806546082A0BD12368DB0708D507
:10586000236962689A42DEBF302305F8013C05F1E6
:10587000FF35ACEB05032361CDF800803B4603AA5E
:1058800021463046FFF7F6FE01304DD14FF0FF3094
:1058900005B0BDE8F083394884F8451013682168E5
:1058A0001D1D1B6815600A060BD5CA0744BF41F0D1
:1058B000200121601BB9226822F020022260102200
:1058C000B7E74D0648BF9BB2EFE76546B3FBF2F181
:1058D00002FB1133C35C05F8013D0B460029F5D1ED
:1058E000B9E7136825686169181D106028061B68F0
:1058F00001D5196002E06A06FBD5198000232361F7
:105900006546B9E71368191D11601D6862680021BA
:105910002846FAF765FC08B1401B606063682361A4
:10592000002384F84330A7E723692A4639463046E6
:10593000C0470130AAD023689B0713D4E068039BBB
:105940009842B8BF1846A3E701234A463946304675
:10595000C04701309AD00135E368039A9B1AAB42E5
:10596000F2DCEBE7002504F11909F5E7002BACD1D7
:10597000037884F8423004F142056CE7527900085C
:10598000637900080FB40A4B13B51C6824B1A369EE
:1059900013B9204601F0B8F805AB049AA168019349
:1059A000204601F071FD02B0BDE8104004B0704720
:1059B0000C00002000294FF480630CBF022200225B
:1059C00000F000B82DE9F7431D46514B1E68044610
:1059D0000F46904626B1B36913B9304601F094F8EA
:1059E0004C4B9C4252D17468B8F1020F06D0B8F10A
:1059F000010F00F28980002DC0F2868021463046DA
:105A000001F018F8616B41B104F14403994202D0EE
:105A1000304601F067FC002363630023A3616360E9
:105A2000A3891B0603D52169304601F05BFCA389DD
:105A300023F44A6323F00303B8F1020FA3815DD07E
:105A400001AB6A462146304601F0F6F8A3891843B7
:105A5000A0812DBB009D284601F052F90746002881
:105A60004ED1DDF80090A9453CD14FF0FF30A3891D
:105A700043F00203A3810023A36004F147032360E2
:105A800023610123636103B0BDE8F083224B9C4294
:105A900001D1B468A8E7214B9C4208BFF468A3E792
:105AA000002FD8D0B36913B9304601F02DF8B8F102
:105AB000010F08BFA389276004BF43F00103A3813E
:105AC000A38913F00800C4E904751BD013F001008A
:105AD00018BF6D424FF000031DBFA360A5611846BB
